:100000000C9434000C9451000C9451000C94510049
:100010000C9451000C9451000C9451000C9451001C
:100020000C9451000C9451000C9451000C9451000C
:100030000C9451000C9451000C9451000C945100FC
:100040000C9451000C9451000C9451000C945100EC
:100050000C9451000C9451000C9451000C945100DC
:100060000C9451000C94510011241FBECFEFD8E026
:10007000DEBFCDBF11E0A0E0B1E0E0E4F8E002C0F7
:1000800005900D92A032B107D9F721E0A0E2B1E0CE
:1000900001C01D92A233B207E1F70E94A9010C949E
:1000A0001E040C940000529A5A982FE78DEE90E0AF
:1000B000215080409040E1F700C00000F894529831
:1000C0005A9AE5E3EA95F1F7000081E04A9980E069
:1000D000F5E7FA95F1F700004A9B03C0882381F009
:1000E0002AC0EFE5F1E03197F1F700C000004A992E
:1000F00010C08823B9F027C081112CC084E0089576
:100100008FE591E00197F1F700C0000089B182E02E
:100110001AC0E3E3F1E03197F1F700C000004A991B
:10012000EBCF089583E391E00197F1F700C0000061
:1001300089B183E00895EFE5F1E03197F1F700C070
:10014000000099B1E6CFE3E3F1E03197F1F700C0A9
:10015000000099B108950E945300882319F0789403
:1001600080E0089598E210922B014A9906C085E03C
:100170008A95F1F700004A9BFACF4A9B0BC085E0B5
:100180008A95F1F7000080912B018F5F80932B01FE
:100190004A99F5CF80912B0120912A01821718F4FA
:1001A00080932A0106C020912901281710F480931A
:1001B00029019150C1F6789420912A01809129015A
:1001C00090E0820F911D959587958093280181E09D
:1001D0000895CF92DF92EF92FF92CF93DF930E9428
:1001E0005300882319F0789480E09EC0ACE2B1E01F
:1001F00021E331E0D8E0C1E0FD011C925D2F808158
:1002000090E0880F991F10922B014A9906C045E093
:100210004A95F1F700004A9BFACF4A9B0BC045E094
:100220004A95F1F7000040912B014F5F40932B015D
:100230004A99F5CF4C2F70912B01609128017617C8
:1002400008F440E0842B80835150C9F61196A21720
:10025000B30791F67894C0912E0160912F0170E060
:1002600080E090E00E94FA022DEC3CEC4CEC5DE367
:100270000E9486036B017C016C2F6F7770E080E039
:1002800090E00E94FA022DEC3CEC4CEC51E40E9410
:1002900086039B01AC01C701B6010E946302CC2317
:1002A0004CF0609324017093250180932601909374
:1002B00027010BC0DC01CB01B0588093240190933F
:1002C0002501A0932601B093270160912D0170E0D4
:1002D00080E090E00E94FA022DEC3CEC4CEC5DE3F7
:1002E0000E9486036B017C0160912C0170E080E02C
:1002F00090E00E94FA022DEC3CEC4CEC51E40E94A0
:1003000086039B01AC01C701B6010E9463026093A2
:100310002001709321018093220190932301809109
:1003200030018093310181E0DF91CF91FF90EF9018
:10033000DF90CF9008951092C00088E18093C100B3
:1003400086E08093C2001092C50089E18093C400CA
:100350000895CF93DF9300D000D000D0CDB7DEB7A3
:1003600014B88FEF85B917B888B980E18AB98FEED4
:100370008BB95C9A0E949B012FE787EC90E3215098
:1003800080409040E1F700C000000E94AB000F2EBB
:10039000F4E1AF2EF1E0BF2EF02D0F2EFDE09F2EE9
:1003A000F02D00EC10E00F2EF6ECEF2EF12CF02DDE
:1003B0000F2EFDE1CF2EF1E0DF2EF02D0F2EF8E015
:1003C0006F2EF1E07F2EF02DAFE7B7EC20E3A150C8
:1003D000B0402040E1F700C000000E94E900811118
:1003E00017C05C988FE797ECA0E381509040A04045
:1003F000E1F700C000005C9AF301992DD8018C91BF
:1004000085FFFCCFD7019C9391919111F7CFDCCF61
:10041000609124017091250180912601909127011E
:100420000E94C702DC01CB014AE0BE016F5F7F4F33
:100430000E94E903F501992DD8018C9185FFFCCF2D
:10044000D7019C9391919111F7CF9981992329F12B
:10045000FE013296D8018C9185FFFCCFD7019C9389
:1004600091919111F7CF19C0D8018C9185FFFCCFE4
:10047000D7019C9391919111F7CF9981992309F418
:10048000A3CFFE013296D8018C9185FFFCCFD70116
:100490009C9391919111F7CF97CF6091200170912A
:1004A000210180912201909123010E94C702DC0169
:1004B000CB014AE0BE016F5F7F4F0E94E903F60166
:1004C00090E2D2CF5058BB27AA270ED0E5C0D6D095
:1004D00030F0DBD020F031F49F3F11F41EF4CBC09C
:1004E0000EF4E095E7FBC1C0E92FE7D080F3BA171F
:1004F000620773078407950718F071F49EF5FFC033
:100500000EF4E0950B2EBA2FA02D0B01B90190012E
:100510000C01CA01A0011124FF27591B99F0593F72
:1005200050F4503E68F11A16F040A22F232F342FBA
:100530004427585FF3CF469537952795A795F04008
:100540005395C9F77EF41F16BA0B620B730B840B1D
:10055000BAF09150A1F0FF0FBB1F661F771F881FD5
:10056000C2F70EC0BA0F621F731F841F48F487952D
:1005700077956795B795F7959E3F08F0B3CF93951C
:10058000880F08F09927EE0F97958795089504D066
:100590006894B111B5C0089598D088F09F5790F035
:1005A000B92F9927B751A0F0D1F0660F771F881F98
:1005B000991F1AF0BA95C9F712C0B13081F09FD0D7
:1005C000B1E008959CC0672F782F8827B85F39F075
:1005D000B93FCCF3869577956795B395D9F73EF4F7
:1005E00090958095709561957F4F8F4F9F4F08959F
:1005F000E89409C097FB3EF49095809570956195BD
:100600007F4F8F4F9F4F9923A9F0F92F96E9BB2772
:100610009395F695879577956795B795F111F8CFEE
:10062000FAF4BB0F11F460FF1BC06F5F7F4F8F4F59
:100630009F4F16C0882311F096E911C0772321F04F
:100640009EE8872F762F05C0662371F096E8862FE7
:1006500070E060E02AF09A95660F771F881FDAF73E
:10066000880F9695879597F9089597F99F6780E881
:1006700070E060E008959FEF80EC089500240A94F4
:100680001616170618060906089500240A9412166D
:100690001306140605060895092E0394000C11F4A0
:1006A000882352F0BB0F40F4BF2B11F460FF04C04D
:1006B0006F5F7F4F8F4F9F4F089557FD9058440FA6
:1006C000551F59F05F3F71F04795880F97FB991FB1
:1006D00061F09F3F79F0879508951216130614066E
:1006E000551FF2CF4695F1DF08C0161617061806FB
:1006F000991FF1CF86957105610508940895E894D6
:10070000BB2766277727CB0197F908950BD0C4CF75
:10071000B5DF28F0BADF18F0952309F0A6CFABCFEC
:100720001124EECFCADFA0F3959FD1F3950F50E0CF
:10073000551F629FF001729FBB27F00DB11D639F93
:10074000AA27F00DB11DAA1F649F6627B00DA11D39
:10075000661F829F2227B00DA11D621F739FB00DDF
:10076000A11D621F839FA00D611D221F749F33274F
:10077000A00D611D231F849F600D211D822F762FE8
:100780006A2F11249F5750408AF0E1F088234AF0E5
:10079000EE0FFF1FBB1F661F771F881F9150504031
:1007A000A9F79E3F510570F060CFAACF5F3FECF3F1
:1007B000983EDCF3869577956795B795F795E7951D
:1007C0009F5FC1F7FE2B880F911D9695879597F92E
:1007D0000895BB274A3031F4992322F4BDE2909565
:1007E00081959F4F0C94F503BB27FB015527AA2742
:1007F000880F991FAA1FA41710F0A41B83955051AE
:10080000B9F7A05DAA3308F0A95DA193009779F725
:10081000B111B1931192CB010C940E04DC01FC01D7
:10082000672F71917723E1F7329704C07C916D9324
:1008300070836291AE17BF07C8F30895F894FFCF95
:100840002D3332303030000D0A4448542045525286
:100850004F52000D0A44485420543D0020483D00AA
:00000001FF
